:020000040800F2
:100000001032002099010008634100087134000893
:1000100061410008910D0008255B00080000000008
:1000200000000000000000000000000001010008C6
:10003000E30D000800000000450100087D540008A1
:10004000B3010008B3010008B3010008B3010008C0
:10005000B3010008B3010008B3010008B3010008B0
:10006000B3010008B3010008B3010008950D0008B2
:10007000B3010008B3010008B3010008B301000890
:10008000A10D0008AD0D0008B3010008B301000880
:10009000B3010008B3010008B3010008B301000870
:1000A000B3010008B3010008B3010008B301000860
:1000B000B3010008B301000851550008B30100085E
:1000C000B3010008B3010008B3010008B301000840
:1000D000B3010008B15A0008BD5A0008B301000876
:1000E000B3010008B3010008B3010008DFF80CD029
:1000F00000F028FD0048004705820008103200206B
:10010000224B19680868B0E8F00F80F30988BFF344
:100110006F8F4FF0000080F311884EF00D0E704786
:100120000000000006480068006880F3088862B696
:1001300061B6BFF34F8FBFF36F8F00DF00BF00BF0B
:1001400008ED00E0EFF30980BFF36F8F0F4B1A68E3
:1001500020E9F00F106008B54FF0500080F31188CF
:10016000BFF34F8FBFF36F8F09F05AFC4FF00000C1
:1001700080F31188BDE8084019680868B0E8F00FFE
:1001800080F30988BFF36F8F704700BF5C010020C8
:10019000EFF3058070470000064880470648004797
:1001A000FEE7FEE7FEE7FEE7FEE7FEE7FEE7FEE727
:1001B000FEE7FEE709550008ED0000082DE9F041D3
:1001C0000024061B254671F1000605DA01240027EC
:1001D000D0EB070067EB0101161E73F1000605DA8C
:1001E0000027D2EB0702012567EB030300F094FB25
:1001F00086460E4617469C46AC4204D00025D0EBFE
:10020000050E65EB010624B10020D2EB000760EB80
:10021000030C704631463A466346BDE8F081202A19
:1002200004DB203A21FA02F00021704721FA02F3A0
:10023000D040C2F12002914008431946704740EA7D
:1002400001039B0703D009E008C9121F08C0042A54
:10025000FAD203E011F8013B00F8013B521EF9D23B
:100260007047D2B201E000F8012B491EFBD2704763
:100270000022F6E710B513460A4604461946FFF772
:10028000F0FF204610BD30B505462A460B4612F851
:10029000010B13F8014B08B1A042F8D01CB10028A3
:1002A00002D06D1CF1E7284630BD421C10F8011B3E
:1002B0000029FBD1801A704730B504460020034660
:1002C00000E05B1C934203D2E05CCD5C401BF8D0A5
:1002D00030BDF0B480EA0102D40F4200B2EB410F0E
:1002E00002D20246084611464A0042D0C30DDDB292
:1002F000C1F3C752AD1A202D35DAC1F3160141F40E
:10030000000204B15242C5F1200602FA06F12A4168
:100310001044B3EBD05F23D0C4B1012DA0EBC35088
:1003200009DCF0BC4FF0004202EAC352DBB200F538
:10033000000000F04CBB400000F1807000EBC350A7
:10034000A0F1807040EAD170490009E0490841EA13
:10035000C071A0EBC35000F50000400800EBC35093
:10036000F0BC00F02BBB6142012202EB4101001BFB
:10037000F6E7F0BC704781F00041AAE780F000404A
:10038000A7E780EA010210B502F00043400022D046
:100390004A001FD0010E01EB1261C0F35600C2F3F8
:1003A000560240F4000042F40002A0FB02200004C8
:1003B0007F39140400D0401C50EA124001D44000A0
:1003C000491EC2B20C0604EBD010401C4008802A23
:1003D00002D003E0002010BD20F00100002900DA67
:1003E0000020184310BD30B480EA010202F000453D
:1003F00030F0004221F0004013D090B1C30DD40D75
:10040000C2F31601C0F31600E41A41F4000140F4EF
:1004100000027D34914201D3641C00E04900002CAD
:1004200002DA30BC002070474FF4000000239142F4
:1004300001D3891A034340084FEA4101F7D151B172
:10044000914202D14FF0004105E002D24FF001018C
:1004500001E06FF0010103EBC450284430BC00F010
:10046000ADBA420005D0C0F3C7525242914201DCFE
:100470000020704700EBC15070472DE9FE4F8046C9
:1004800081EA0300C00F0C46009021F0004123F0E8
:100490000045B8EB0200A94105D2404621469046EE
:1004A0001C460B46024623F00040104347D0270D60
:1004B000C7F30A00C3F30A510290401A0190402882
:1004C0006BDAC3F3130040F4801B0098924620B10E
:1004D0000023D2EB030A63EB0B0B01985946C0F1E2
:1004E0004002504600F049FA06460D46504659462D
:1004F000019A00F051FA10EB08006141002487EAEC
:10050000115284EAE7731A4340D0009A62B3019A09
:10051000012A4FEA075215DC001B61EB02014FF084
:10052000004202EA0752CDE90042001C41F5801169
:1005300032462B4600F088FA03B0BDE8F08F404603
:100540002146F9E7001B61EB0201001C41F5801315
:1005500000185B412018A2F5001747EB030140EAA1
:10056000D570B6196D4111E06D084FEA360645EABF
:10057000C0754FEA0752001B61EB0201001C41F5F8
:10058000801149084FEA30000019514132462B468C
:1005900003B0BDE8F04F00F048BA009801224000D7
:1005A0000023D0EB020263EBE073009821464FEA90
:1005B000E074B8EB000061EB0401E9E783F000436D
:1005C0005BE781F0004158E72DE9FE4F81EA030423
:1005D00004F0004421F0004100944FF0000B23F0A0
:1005E000004350EA01045ED052EA03045BD0C3F337
:1005F0000A54C1F30A552C44A4F2F3340194A0FB2D
:100600000254C1F3130141F48011C3F3130343F403
:10061000801301FB024400FB034E840A970A44EA5C
:10062000815447EA8357A4FB076802958D0A05FBAE
:1006300007854FEA932C04FB0C542705029D4FEAD3
:10064000065847EA1637B5EB08056EEB070C870E20
:10065000920E47EA811742EA8312A7FB0201B6EB2A
:100660000B0164EB00042B0D43EA0C335E1844EBE2
:100670001C50DA465146E7FB0201C5F313044FEA6A
:100680000B3343EA14534FEA0432019C43EA060356
:10069000A4F10C040294009CCDE900B400F0D4F95C
:1006A00003B0BDE8F08F00200146F9E72DE9F04DD9
:1006B00081EA030404F0004B21F0004514464FF09A
:1006C000000A23F0004150EA050220D054EA01025A
:1006D0001DD0C5F30A570246C5F31303C1F3130037
:1006E000C1F30A5640F4801543F48013A7EB0608C3
:1006F000101BD64608F2FD3873EB050002D308F153
:10070000010801E092185B41B8F1000F03DA002004
:100710000146BDE8F08D00204FF480110646844666
:100720000EE0171B73EB050705D3121B63EB0503E4
:1007300006434CEA010C49084FEA300092185B412D
:1007400050EA0107EDD152EA030012D082EA040018
:1007500083EA0501084305D0101BAB4106D20122F4
:10076000002306E000224FF0004302E06FF0010298
:1007700053101AEB06004CEB085110EB0A0041EB4A
:100780000B01BDE8F04D00F050B970B521F0004309
:1007900003430CD0C1F30A550024D5EB040564EBE8
:1007A0000403D617AD1AB34102DB0020014670BD29
:1007B000201841EB025170BDC10F80EAE07008447F
:1007C000CA079623002100F002B9962300221146A1
:1007D00000F0FDB80EB5C10F80EAE0700844CA070A
:1007E000002140F233438DE80E000A460B4600F02C
:1007F0002BF903B000BD00F0004220F00040C10D15
:10080000C0F3160040F400007F2901DA0020704791
:10081000962903DCC1F19601C84001E09639884071
:10082000002AF4D04042704720F00040C10DC0F3D0
:10083000160040F400007F2901DA00207047962955
:1008400003DCC1F19601C840704796398840704773
:1008500070B5C1F30A5201F000450024C1F3130141
:1008600040F2FF3341F480119A4201DA002070BD5A
:1008700040F233439A42A2F2334203DC5242FFF782
:10088000CEFC00E090402C43F1D0404270BD00F01F
:10089000004230F000400AD0C10D01F56071C0F394
:1008A000160042EA0151C208400711437047002078
:1008B0000146704701F0004330B421F0004150EA96
:1008C000010206D00A0DA2F56072C1F31301002ADD
:1008D00002DC30BC00207047440F44EAC104C10070
:1008E000E01830BC00EBC25000F068B830B50B46E1
:1008F000014600202022012409E021FA02F59D4250
:1009000005D303FA02F5491B04FA02F52844151E23
:10091000A2F10102F1DC30BD2DE9F05F05460020B7
:1009200092469B4688460646814640241BE0284660
:10093000414647462246FFF772FC53465A46C01AC4
:10094000914110D311461846224600F016F82D1A90
:1009500067EB01084F4622460120002100F00DF808
:1009600017EB00094E41201EA4F10104DFDC4846CC
:1009700031462A464346BDE8F09F202A04DB203A50
:1009800000FA02F1002070479140C2F1200320FAE2
:1009900003F3194390407047202A06DBCB17203A17
:1009A00041FA02F043EAE07306E041FA02F3D04074
:1009B000C2F1200291400843194670470029A8BFA0
:1009C0007047401C490008BF20F00100704710B478
:1009D000B0FA80FC00FA0CF050EA010404BF10BC2D
:1009E000704749B1CCF1200421FA04F411FA0CF15A
:1009F00018BF012121430843A3EB0C01CB1D4FEA93
:100A000000614FEA102042BF002010BC704700EB8D
:100A1000C35010440029A4BF10BC7047401C4900BB
:100A200008BF20F0010010BC704710B5141E73F110
:100A3000000408DA401C41F1000192185B411A439E
:100A400001D120F0010010BD2DE9F04D92469B46EA
:100A500011B1B1FA81F202E0B0FA80F22032904690
:100A6000FFF78BFF04460F4640EA0A0041EA0B01FC
:100A700053465A46084313D0114653EA010019D091
:100A8000C8F140025046FFF7CAFB05460E465046E5
:100A900059464246FFF771FF084305D0012004E0A4
:100AA00020463946BDE8F08D0020054346EAE07651
:100AB0002C4337430A986305E40AA0EB08000022A0
:100AC000FD0A44EA47540A3002D500200146E9E70E
:100AD000010510196941DDE9084500196941BDE8C2
:100AE000F04DA2E7C1F30A52C1F3130140F2FF3304
:100AF00041F480119A4202DA00200146704740F228
:100B000033439A42A2F2334202DC5242FFF787BBE0
:100B1000FFF733BF30B5041E71F1000404DB4FF062
:100B20000044404264EB0101141E73F1000405DB34
:100B30001C464FF00043524263EB0403994208BF46
:100B4000904230BD064C074D06E0E06840F00103DE
:100B500094E8070098471034AC42F6D3FFF7CAFA7E
:100B600090CB0008B0CB00082DE9F04D00231A46C9
:100B70001B1A8A4103DB00200146BDE8F08DC1F35A
:100B80000A52C1F3130141F480154FF0000BD10755
:100B900002D100186D41521E0027044640F2FF1199
:100BA000384601EB620A3E468046024600204FF47A
:100BB0008011FFF734FBC2197141BB1846EB0100ED
:100BC000B4EB030C75EB000C04D3E41A65EB0005E1
:100BD00017460E46241908F101006D41804634285D
:100BE000E3DDF91946EB0600091BA84103D24FF0DB
:100BF000FF32134601E0002213461BEB070046EBD1
:100C00000A51BDE8F04DFFF710BF0EB540F2334179
:100C100002910021CDE900110A460B46FFF714FFAF
:100C200003B000BD30B58C1810F8012B12F00F0383
:100C300001D110F8013B120906D110F8012B03E095
:100C400010F8015B01F8015B5B1EF9D101E001F8CE
:100C5000013B521EFBD1A142E6D3002030BD000073
:100C600070B5044600688168C943C9071CD1816812
:100C700021F00101816001F075FA05460FE000BF27
:100C800001F070FA401B022809D9A06A40F0100058
:100C9000A062E06A40F00100E062012070BD2068BF
:100CA0008068C043C007EBD0002070BD10B501467E
:100CB000406A826A12F0500F05D0006A026BBDE8EC
:100CC000104008461047816A41F400718162016852
:100CD0008968C1F3424107290CD1017B51B9816A6E
:100CE00021F480718162816AC90403D4816A41F070
:100CF0000101816200F036FE10BD10B5406A816AC4
:100D000041F040018162C16A41F00401C16200F01A
:100D100040FE10BD10B5406A00F03AFE10BD000064
:100D2000F8B500260446009600688168C943C907E3
:100D300028D0816841F0010181601348134900689F
:100D4000B0FBF1F000E0401E00900028FBD101F064
:100D500009FA054611E000BF01F004FA401B022821
:100D60000BD9A06A40F01000A062E06A40F00100D8
:100D7000E06284F824600120F8BD20688068C043E8
:100D8000C007E9D10020F8BD5801002040420F0003
:100D9000FEE70000014800F0C9BF0000E0070020A6
:100DA000014800F0C3BF000024080020014800F003
:100DB000BDBF00006808002030B590F84050012405
:100DC000AC40C56B6C60046863604368102B0368BB
:100DD00003D099600068C26030BD9A600068C1604D
:100DE00030BD70472DE9F0470446167803F0070040
:100DF000DFF85481089D91460F46082805D2DFE8A8
:100E000000F00416293C4F627588300602D598F828
:100E10001C2006E098F81C00012801D0012200E007
:100E20000022B9B2A0B203F0B7FA6D1E76D07006F8
:100E300002D598F81C2006E098F81C00012801D083
:100E4000012200E00022601CB9B280B203F0A4FAD3
:100E50006D1E76D0B00602D598F81C2006E098F8F2
:100E60001C00012801D0012200E00022A01CB9B220
:100E700080B203F091FA6D1E63D0F00602D598F8A7
:100E80001C2006E098F81C00012801D0012200E097
:100E90000022E01CB9B280B203F07EFA6D1E50D081
:100EA000300702D598F81C2006E098F81C000128AD
:100EB00001D0012200E00022201DB9B280B203F06F
:100EC0006BFA6D1E3DD0700702D598F81C2006E025
:100ED00098F81C00012801D0012200E00022601DCA
:100EE000B9B280B203F058FA6D1E2AD0B00702D50D
:100EF00098F81C2006E098F81C00012801D0012277
:100F000000E00022A01DB9B280B203F045FA6D1EC8
:100F100017D0F00703D098F81C2007E011E098F8EC
:100F20001C00012801D0012200E00022E01DB9B21E
:100F300080B203F031FA6D1E03D019F8016F083446
:100F400063E7BDE8F0870000EC08002070B50024DE
:100F50004FF4FA75AE002B46002209A109A000F05B
:100F60003DF808B1012070BD00F0DEF9304600F018
:100F7000EDFF641CE4B2022CEDD3002070BD000034
:100F80004F4B00004154000030B59FB00B4600921B
:100F9000024600240AA101A804F0E2FD4FF4FA750C
:100FA0002B4600220CA101A800F018F810B1012076
:100FB0001FB030BD641CE4B2032CF1D30020F7E76E
:100FC00041542B43575341503D222573222C222557
:100FD00073222C312C2564004F4B0000F0B51A4CC5
:100FE0000E4695B0B4F802111F4615466FF30E0178
:100FF000A4F80211024615A1684604F0B1FD684646
:10100000FFF753F982B26946124802F0EFF956EA47
:10101000050015D0384600F099FFB4F80211002001
:10102000C1F30E0160542EB1314625B12046FFF7C1
:101030002AF928B929460448FFF725F9002800D0E5
:10104000012015B0F0BD0000C401002025730D0A79
:10105000000000007807002030B585B0002408B1FA
:10106000012200E000220BA1684604F079FD4FF454
:10107000FA752B4600220BA16846FFF7AFFF10B1AF
:10108000012005B030BD641CE4B2032CF1D3002074
:10109000F7E7000041542B4349504D55583D256416
:1010A000000000004F4B000010B54FF47A7000F0C4
:1010B0004DFF032204A1054802F098F9BDE8104055
:1010C0004FF4FA7000F042BF2B2B2B007807002062
:1010D00070B50D46044640F2DC53002210A111A069
:1010E000FFF77CFF12A11448FFF7CDF8002813D0BA
:1010F00000231A46C01D0CE0C15C3A2903D0A1545C
:1011000022290AD001E0521ED2B25B1C521CDBB273
:10111000D2B2AB42F0D3012070BD0020A054FAE758
:101120004F4B000041542B434946535200000000EE
:1011300041504D41432C2200C401002070B50D46A2
:1011400004464FF4FA7300220CA10DA0FFF746FFEE
:101150000EA11048FFF797F800280BD00022C01D01
:1011600005E0815CA154222905D0521CD2B2AA42CA
:10117000F7D3012070BD0020A054FAE74F4B0000C8
:1011800041542B43494653520000000053544149F7
:10119000502C2200C401002000B59FB00B4602462F
:1011A00007A1684604F0DCFC41F27073002209A13B
:1011B0006846FFF713FF002800D001201FB000BDD4
:1011C00041542B43574A41503D222573222C22255E
:1011D000732200004F4B0000F0B5BBB00C46074631
:1011E0001E461546642104A8FFF742F817B1012FE7
:1011F00017D109E0E078A178627800920395CDE9F3
:101200000110237812A208E0E078A17862780395B3
:101210000092CDE9011023780EA20FA104A804F0DA
:101220009FFC052E06D204AB324611A11DA804F086
:1012300097FC04E004AA13A11DA804F091FC4FF44C
:10124000FA6314A218A11DA8FFF7C8FE3BB0F0BDB9
:101250005443500055445000222573222C2225640B
:101260002E25642E25642E2564222C257300000073
:1012700041542B43495053544152543D25642C252D
:101280007300000041542B43495053544152543D84
:1012900025730000414C524541445920434F4E4E66
:1012A00045435445440000004F4B000070B50546CF
:1012B00000244FF4FA7625B1012D07D0022D0DD16F
:1012C00012E033460BA20EA10EA003E0334609A2A2
:1012D0000BA10FA0FFF782FE002804D1641CE4B22A
:1012E000032CE8D3002070BD334602A204A10BA05A
:1012F000F0E700006E6F206368616E6765000000B4
:101300004F4B000041542B43574D4F44453D310056
:1013100041542B43574D4F44453D320041542B43DC
:10132000574D4F44453D330040F6C41302A204A17B
:1013300004A0FFF753BE00007265616479000000ED
:101340004F4B000041542B525354000010B54FF442
:101350007A742346002207A107A0FFF73FFE00286A
:1013600007D02346BDE8104007A202A107A0FFF75F
:1013700035BE10BD4F4B000041542B4349504D4FDB
:1013800044453D31000000003E00000041542B4325
:10139000495053454E440000704700000A2805D0CC
:1013A0000D2805D0034909690968084700F096B877
:1013B00070470000EC0800207CB514460D4682689A
:1013C0008188CDE90012438802882146284602F030
:1013D00095FA7CBD7CB51E4C05462946206980697E
:1013E00000F038F8002831D041680088281A01EB55
:1013F000C0056968A878CDE9000120692A78B4F9A8
:101400001610037DB4F9140002F078FA2169487DC2
:10141000097D884212D9227F012A01D0012200E0F1
:1014200000220092A28A2B78E68A1A44304483B2C2
:10143000701881B292B2A08A02F0FEFE2269B4F95D
:1014400014006978927D01FB0200A0827CBD00003F
:10145000EC08002006E002888A4202D842888A42CC
:1014600002D280680028F6D17047000070B5094D9F
:101470000446214628698069FFF7ECFF002807D061
:1014800041680088201A11F830002969897D484395
:1014900070BD0000EC08002001200880704710B5E6
:1014A0008069FFF7D7FF002800D0012010BD10B5DC
:1014B0000021084600F0F0F8402380220021BDE81A
:1014C00010400846AFF3008038B500249BB292B2BA
:1014D00089B280B2009402F0AFFE38BD00B500F0D2
:1014E000BFF80249CA8A1044C88200BDEC08002037
:1014F0002DE9FC47060054D000F0B2F8374C814685
:10150000B4F9148000F0B2F8E18A0746C81BE08203
:101510003DE000BF47F6FF71304600F030F98246EB
:101520000146304600F012F90546A07E00F00300A7
:1015300001283CD0022836D00020A18A6A46081A29
:10154000A082ADF80000691E0844ADF80400E08AEE
:10155000ADF80200A9F101010844ADF806005146BA
:10156000304600F0D9F8BDF80200E082514630461E
:1015700000F0CAF8064430780A281AD00D2818D08E
:10158000BDF800002844A082307818B1761C30786D
:101590000028BFD1E08A3844E082608B20F003004D
:1015A0006083BDE8FC8705EBD5704010C5E7284691
:1015B000C3E7A07E00F0030001280BD0022809D069
:1015C0000020A08230780A28DED1E18A01EB0900F0
:1015D000E082D9E7A4F81480F4E70000EC080020CA
:1015E000024B9982DA82FFF783BF0000EC080020EB
:1015F00070B50646094813460D46B0F91A0040F08A
:10160000020000F079F804461A4629463046FFF7F2
:10161000E7FF2046BDE8704000F06EB8EC080020FF
:10162000FFF7CABE0B460146184602F0ABB902F0FE
:10163000CBB92DE9F0411D46164607460C4605E09C
:1016400032462146384602F09DF9641CAC42F7DB75
:10165000BDE8F0810149096949680847EC080020A4
:1016600001480069407D7047EC08002009490020CE
:10167000897E01F00C020749042A096906D0082A6C
:1016800001D00C2A01D1087D40087047087D401E1A
:1016900070470000EC08002070B50D4604F044FAD5
:1016A0000446284604F046FA204370BD0B4910B5A5
:1016B0002E2008700A4800217F220180418082800C
:1016C0003F22C2808182C1820649016101214172AB
:1016D000017702F0D9FE002010BD0000E2000020DA
:1016E000EC08002070BC0008024A116900B11061CA
:1016F00008467047EC080020024AB2F91A105083DD
:1017000008467047EC080020002000E0401C491EFD
:10171000FCD2704702F06CBE70B50B4B12680446E9
:101720009A821214DA820D460BE000BF14F8010B06
:101730007F2804D914F8011B6D1E41EA0020FFF731
:101740002DFE6D1EF2D570BDEC08002070B50D4663
:1017500004004FF000060CD10FE0641C6D1E7F28C2
:1017600004D914F8011B6D1E41EA0020FFF772FF37
:101770000644207808B1002DEFDA304670BD002213
:1017800008E0401C7F2B02D9401C521C01E00A2BB0
:1017900004D0521C03780BB18A42F2DB104670472A
:1017A000F8B500250446009590F82400012808D0DB
:1017B000012084F824002046FFF752FA060002D0E8
:1017C0004BE00220F8BDA06A20F4885040F00200EF
:1017D000A062022000F084FD22490968B1FBF0F00C
:1017E000400000E0401E00900028FBD12046FFF79B
:1017F00097FA2068816841F00801816000F0B2FC2E
:10180000074604E000F0AEFCC01B0A2811D820688F
:1018100080680007F6D42068816841F00401816087
:1018200000F0A0FC07460EE000F09CFCC01B0A285C
:1018300009D9A06A20F0020040F01000A06284F8EC
:1018400024500120F8BD206880684007ECD4A06ACD
:1018500020F0020040F00100A06284F824503046DD
:10186000F8BD000058010020F8B50024009490F85D
:1018700024202546012A12D0012280F824204A681B
:101880001F23072A0DD20668776B521E02EB8202D5
:1018900093409F430B6893401F43776319E00220F6
:1018A000F8BD06680D2A0AD2376BD21F02EB8202FE
:1018B00093409F430B6893401F43376309E0F76AE7
:1018C0000D3A02EB820293409F430B6893401F4303
:1018D000F7620A68072306680A2A0AD3F7680A3AF1
:1018E00002EB420293409F438B6893401F43F76093
:1018F00008E0376902EB420293409F438B689340B4
:101900001F4337610A68102A01D0112A20D1124BD7
:1019100002689A4217D193681B0219D4936843F462
:10192000000393600968102912D10C490C4A096818
:10193000B1FBF2F101EB8101490000E0491E009189
:101940000029FBD104E0816A41F020018162012479
:1019500080F824502046F8BD0024014058010020A2
:1019600040420F000021084A084600BF32F81030FC
:10197000401C194489B21428F8DB1420B1FBF0F0A4
:101980000249088270470000B8070020A00000202C
:10199000704770472DE9F0414FF0000704003D46C5
:1019A0007ED0A06A002628B9E66284F8246020462A
:1019B00000F07EF82046FFF753F9A16A01F010010C
:1019C000014304D0A06A40F01000A06268E0A16A60
:1019D00021F4885141F00201A1626268E169237B30
:1019E0000A4347EA43010A43A1684FF48077B942AA
:1019F00008D0012906D0002194F814C0BCF1010FD1
:101A000002D00AE03946F7E7F3B1A36A43F02003B6
:101A1000A362E36A43F00103E3622368D3F804C0DE
:101A20002CF4694C4CEA010CC3F804C02368996893
:101A3000DFF870C001EA0C0111439960A168B94256
:101A40000BD0012909D00CE0DFF85CC0A3690CEBD6
:101A500043330B4343F40061DFE7218A0D05A5F50D
:101A600080152168CB6A23F470032B43CB62216875
:101A700089680E4B1940914208D1E662A16A21F0B3
:101A8000020141F00101A162BDE8F081A06A20F0ED
:101A9000020040F01000A062E06A40F00100E06245
:101AA0000120F1E7FDF7E1FF00E0FFFFFE0E1FFF61
:101AB00070B586B000250646009501950295039500
:101AC00000681A4988422ED11949886940F400708B
:101AD0008861886900F400700490886940F004000F
:101AE00088618869694600F0040004900220009033
:101AF000032001900F4800F03BFA104C0E48C4E957
:101B000000058020C4E9025040002061800060612F
:101B10002020C4E90605204600F0B2F908B1FFF71D
:101B20003BFC3462666206B070BD000000240140D8
:101B3000001002400008014008000240E0070020B9
:101B40002DE9F047894604463B4900683B4F0E1D8E
:101B50009046884201D0B84207D1306810F4702F07
:101B600003D001252846BDE8F08794F82400012819
:101B70000CD0012084F824002046FFF7D1F805009E
:101B80004FF0000004D084F82400EBE70220EAE7DD
:101B9000A16A40F60162914341F48071A16221681B
:101BA000B94218D1326812F4702F14D0A16A41F4EE
:101BB0008011A1623168490505D5A16A21F400515F
:101BC00041F48051A162A16AC9040AD5E16A21F0F9
:101BD0000601E16206E0A26A22F48012A26249686C
:101BE000E9E7E06284F82400216A15488862216AE6
:101BF0001448C862216A1448086321686FF0020023
:101C000008602068816841F48071816021684346E2
:101C10004A464C31206A00F061F920688168C1F3BE
:101C200042410729816803D041F48011816099E71E
:101C300041F4A001FAE7000000240140002801401F
:101C4000AD0C0008150D0008FB0C000810B590F84D
:101C500021100022022905D00421816380F8202070
:101C6000012010BD01680B6823F00E030B600168B2
:101C70000B6823F001030B6090F84030C46B012126
:101C800001FA03F3636080F8211080F820201046E9
:101C900010BD000010B590F821100024022903D0D7
:101CA0000421816301243DE001680A6822F00E02EC
:101CB0000A6001680A6822F001020A601A4A016893
:101CC000914201D1012121E0174A1432914201D100
:101CD00010211BE0144A2832914201D1891515E0E8
:101CE000114A3C32914201D189140FE00E4A503220
:101CF000914202D14FF4803108E00B4A64329142A4
:101D000002D14FF4801101E04FF08071064A083A89
:101D10005160012180F82110002180F82010416BD2
:101D200001B18847204610BD080002402DE9F05F50
:101D3000C16B0C6801680B68D0F840C0042202FA3D
:101D40000CF2494DDFF824A1494E4A4FDFF828B183
:101D5000DFF828E122422CD05A072AD50A689206D9
:101D600003D40A6822F004020A600168A94201D182
:101D7000042219E0514501D1402215E0B14202D1BF
:101D80004FF4806210E0B94202D14FF480420BE080
:101D9000594502D14FF4802206E0714502D14FF43B
:101DA000800201E04FF080622F4908394A60C16A21
:101DB0003BE04FF0020808FA0CF818EA040F4FF065
:101DC00000094FF0010235D05FEA837832D50B6805
:101DD0009B0605D40B6823F00A030B6080F82120D2
:101DE0000168A94201D1022219E0514501D1202206
:101DF00015E0B14202D14FF4007210E0B94202D1B5
:101E00004FF400520BE0594502D14FF4003206E086
:101E1000714502D14FF4001201E04FF000721249F7
:101E200008394A6080F82090816A00291AD0BDE8FC
:101E3000F05F0847082505FA0CF5254212D01B076C
:101E400010D50B6823F00E030B6090F84010C36BA5
:101E500002FA01F15960826380F8212080F8209015
:101E6000016BE2E7BDE8F09F080002401C00024061
:101E70003000024044000240580002406C00024022
:101E800030B528B308C8134914221944B1FBF2F144
:101E90008900C16310498163022141771A6843F6C2
:101EA000F0718A43D0E900142143D0E902452C4364
:101EB0002143046921434469214384692143114337
:101EC000196000214163012242770177084630BD45
:101ED000012030BDF8FFFDBF0000024070B5044690
:101EE00090F82000002501280CD0012084F8200063
:101EF00094F821600020012E06D084F820000225ED
:101F0000284670BD022070BD022684F82160A063BF
:101F10002068066826F0010606602046FEF74CFFA2
:101F2000E06A00282068016802D041F00E0106E056
:101F300021F0040101602068016841F00A0101609C
:101F40002068016841F001010160D9E770B50446DD
:101F500000F008F90546601C02D0044800780444EB
:101F600000F000F9401BA042FAD370BD4C010020E4
:101F70002DE9F84FDFF8B891002409F1040A0AF1BD
:101F8000040B23460F270BF1040EC9E00125A540E1
:101F90002A40AA427DD1674ED1F804C0ACEB0608B6
:101FA000B44532D014DCBCF1030F3AD009DCBCF1EB
:101FB000000F2AD0BCF1010F1CD0BCF1020F31D1AF
:101FC0001DE0BCF1110F17D0BCF1120F2AD119E09E
:101FD000B8F5881F19D006DCB8F5803F15D0B8F5E4
:101FE000801F1FD111E0B8F5001F0ED0B8F5041FF7
:101FF00018D10AE0CB6815E0CB681B1D12E0CB6856
:1020000008330FE0CB680C330CE08B682BB1012B4D
:102010004FF0080303D0456104E0042302E00561AA
:1020200000E00023FF2A01D8064601E000F1040683
:102030004FEA840501D9A5F12005D6F8008007FAFA
:1020400005FC28EA0C0803FA05F548EA0508C6F875
:1020500000804D68ED0062D5374DAE6946F001064F
:10206000AE61AD6924F0030605F001050095334D1E
:1020700006EB050CDCF80850A607360F07FA06F841
:1020800025EA0805DFF8B880404503D14FF0000885
:1020900017E044E0DFF8AC80404502D14FF0010882
:1020A0000FE0DFF8A480404502D14FF0020808E0BD
:1020B000DFF89880404502D14FF0030801E04FF06F
:1020C000040808FA06F848EA0508CCF808804D68C4
:1020D000D9F80060ED034D4601D5164300E0964364
:1020E0002E604D68DAF80060AD03554601D5164301
:1020F00000E096432E604D68DBF80060ED025D461F
:1021000001D5164300E096432E604D68DEF800606E
:10211000AD02754601D5164300E096432E60641C5F
:102120000D682A46E5407FF431AFBDE8F88F000026
:1021300000040140000011100010024000000140A6
:1021400000080140000C0140001001400014014053
:102150008068084000D0012070470AB101617047D3
:102160000904FBE701488068704700004C0100202B
:102170000248816802781144816070474C01002058
:10218000074810B5016841F010010160032000F01C
:1021900095F8002000F006F800F03EF8002010BD91
:1021A0000020024000B5014687B000221E2000F04A
:1021B00065F81E2000F054F81348C16941F004018D
:1021C000C161C06905A900F004000690684600F0EE
:1021D000F7F900F015FA0D494000B0FBF1F10D4898
:1021E0000B4A491E0260416040F2E7320021C0E91B
:1021F0000321816000F00DFC10B1012007B000BD8B
:10220000044800F035FCF9E70010024040420F009E
:1022100000080040AC0800200F4808B5816941F073
:1022200001018161816901F001010091C16941F001
:102230008051C161C069002200F0805000900F21E0
:10224000901E00F01BF80548416821F0E06141F064
:102250000071416008BD0000001002400000014014
:10226000002809DB00F01F02012191404009800095
:1022700000F1E020C0F8001170470000F0B40E4BF0
:102280001B680C46C3F30223C3F10705042D00D9D4
:102290000425191D072901D2002300E0DB1E0126B9
:1022A00006FA05F1491E214099409E40761E1640CF
:1022B0003143F0BC03F07CBC0CED00E0064900F0BB
:1022C000070208684FF6FF03184040EA0220034A5D
:1022D00010430860704700000CED00E00000FA05B4
:1022E00010B529A401461DCC86B08DE81D002AA09A
:1022F0002A4C006804900020012923D002293AD0FA
:1023000010291DD161682268D20119D5C1F3834219
:10231000C9031DF8020009D5616804AAC1F3404150
:10232000515C1F4AB2FBF1F1484301E01D494843AB
:102330006168490204D440005FF00301B0FBF1F092
:1023400006B010BD226AC2F30121012903D1920710
:1023500001D5C803F4E7022905D1626A920702D5C4
:1023600049F64040ECE70329EAD121688903E7D523
:102370004FF22440E4E700F053F96168C1F3813182
:10238000491C4900DAE700000203040506070809B2
:102390000A0B0C0D0E0F101001020000001002407D
:1023A00000127A0000093D002DE9F8430546007847
:1023B000354CC00754D0E0690026C00008D4E0695D
:1023C00040F08050E061E069012600F0805000900C
:1023D0002E480168C90512D40168804641F4807115
:1023E0000160FFF7BFFE074605E000BFFFF7BAFE3A
:1023F000C01B642823D8D8F80000C005F6D5206A91
:1024000010F4407021D0A98801F4407181421CD0A1
:10241000206A1F49012220F440700A6000220A60ED
:102420002062C00711D0FFF79DFE074641F28838B1
:1024300008E000BFFFF796FEC11B414502D903200B
:10244000BDE8F883206A8007F4D5206A696820F423
:102450004070084320621EB1E06920F08050E061C6
:102460002878800705D56068A96820F440400843B3
:1024700060602878C00605D56068E96820F48000AF
:10248000084360600020DBE700100240007000405D
:10249000400442422DE9F0470F46050061D0434E0B
:1024A000306800F00700B84209D2306820F0070019
:1024B00038433060306800F00700B84251D12868D6
:1024C0003B4C810712D5400703D5606840F4E060BB
:1024D00060602878000703D5606840F46050606051
:1024E0006068A96820F0F000084360602878C007A1
:1024F00028D06868012810D02168022810D08907E8
:1025000000292EDA616821F0030101436160FFF7C1
:1025100029FE804641F288390DE021688903EFE702
:102520008901EDE7FFF71EFEA0EB0801494502D93E
:102530000320BDE8F0876068696800F00C00B0EB2C
:10254000810FEFD1306800F00700B8420BD9306836
:1025500020F0070038433060306800F00700B842D0
:1025600001D00120E5E72878400705D56068E968D3
:1025700020F4E060084360602878000706D56068B2
:10258000296920F4605040EAC100606000F058F80A
:102590006168084AC1F30311515CC84006490860EC
:1025A00006480068FFF7FEFD0020C2E70020024059
:1025B00000100240D6C80008580100205001002039
:1025C0000F2202600C4A536803F003034360536810
:1025D00003F0F0038360536803F4E063C360526860
:1025E0004FF4E06303EAD20202610448006800F09D
:1025F0000700086070470000001002400020024001
:102600000448054900684968044AC1F30221515C45
:10261000C84070475801002000100240E6C800087A
:102620000448054900684968044AC1F3C221515C65
:10263000C84070475801002000100240E6C800085A
:1026400012A185B00FC98DE80F0014A0144A0068CC
:1026500004905168134801F00C03042B10D0082B90
:102660000ED1C1F38343C9031DF803000AD5516895
:1026700004AAC1F34041515C0A4A5043B0FBF1F057
:1026800005B0704708494843FAE700000203040513
:10269000060708090A0B0C0D0E0F101001020000AE
:1026A0000010024000127A0000093D002DE9F84FA9
:1026B000040070D02078C04DC00749D06868C0F3CE
:1026C0008100012807D06868C0F38100022809D181
:1026D0006868C00306D52868800339D5606800287B
:1026E000E7D035E06068B0F5803F0BD010B1B0F5B1
:1026F000A02F11D0286820F480302860286820F4AA
:10270000802002E0286840F480302860606890B142
:10271000FFF728FD06460AE0286840F4802028607C
:10272000F0E700BFFFF71EFD801B642873D8286800
:102730008003F7D50CE0FFF715FD064605E000BF66
:10274000FFF710FD801B6428F0D828688003F7D4B9
:1027500020789A4E80074FF001094FF0000839D5D4
:10276000686810F00C0F07D06868C0F38100022879
:1027700009D16868C00306D42868800714D5206989
:10278000012808D110E02069B0B1C6F80090FFF729
:10279000E9FC074605E00AE1FFF7E4FCC01B02285C
:1027A000C4D828688007F7D52868616920F0F80048
:1027B00040EAC10028600DE0C6F80080FFF7D2FCB7
:1027C000074604E0FFF7CEFCC01B022823D8286888
:1027D0008007F7D4207800072CD57948A169D9B1B2
:1027E000C0F80090FFF7BEFC074604E0FFF7BAFC14
:1027F000C01B02280FD8686A8007F7D571484FF4CC
:10280000FA510068B0FBF1F0009000BF0098411E43
:102810000091FAD20EE080E0C0F80080FFF7A2FC41
:10282000074604E0FFF79EFCC01B022875D8686AC3
:102830008007F7D42078400760D5E8690027C000FA
:1028400008D4E86940F08050E861E869012700F0A9
:10285000805000905C480168C90513D40168834624
:1028600041F480710160FFF77DFC824606E000BF05
:10287000FFF778FCA0EB0A0064284ED8DBF80000D4
:10288000C005F5D5E06801280AD008B1052813D0A5
:10289000286A20F001002862286A20F0040002E083
:1028A000286A40F001002862E06841F2883B98B154
:1028B000FFF758FC82460BE0286A40F004002862CB
:1028C000EEE700BFFFF74EFCA0EB0A0159455AD8CE
:1028D000286A8007F6D50CE0FFF744FC824605E045
:1028E000FFF740FCA0EB0A0159454CD8286A800745
:1028F000F6D41FB1E86920F08050E861E06988B340
:102900006968C1F38101022944D00228C6F86080B9
:1029100004D0FFF727FC044638E034E0FFF722FC40
:10292000074604E0FFF71EFCC01B02282BD82868CE
:102930008001F7D4206AB0F5803F05D16868A168AE
:1029400020F4003008436860D4E90801084369684E
:1029500021F4741108436860C6F86090FFF702FC28
:10296000044606E025E000BFFFF7FCFB001B022841
:1029700009D828688001F7D51BE000BFFFF7F2FBFC
:10298000001B022802D90320BDE8F88F28688001C7
:10299000F4D40EE00128F7D06868226A00F4803190
:1029A000914204D1616A00F47010884201D0012084
:1029B000EAE70020E8E70000001002400000424281
:1029C0008004424258010020007000407047704768
:1029D00070B590F83C20012A19D0012400F83C4F32
:1029E0000222427050F83C3C5A689D6822F0700602
:1029F0000A684968324325F0800529435A6050F837
:102A00003C2C9160447000210170084670BD02208A
:102A100070BD10B5040003D094F83D0010B107E07C
:102A2000012010BD002084F83C00204600F00CF886
:102A3000022084F83D00211D206802F08FFD012056
:102A400084F83D00002010BD08B5006806498842A2
:102A500008D10648C16941F00201C161C06900F0B6
:102A60000200009008BD0000000400400010024079
:102A70000168CA6842F00102CA600068816801F01A
:102A80000701062903D0016841F00101016000201F
:102A9000704770B5044690F83C00012817D0012516
:102AA00084F83C50022084F83D002068826822F0BF
:102AB000770222F47F4282600868502830D00DDC13
:102AC00020284DD005DC98B310283BD148E00220E7
:102AD00070BD302844D0402834D139E0602828D057
:102AE000702806D0B0F5805F2CD0B0F5005F29D1FA
:102AF0000AE0CB68D1E90121206802F072FD20686C
:102B0000816841F0770109E0CB68D1E901212068B3
:102B100002F067FD2068816841F48041816011E026
:102B2000CA684968206802F011FE5021206807E059
:102B300016E0CA684968206802F019FE6021206822
:102B400002F059FD84F83D50002084F83C0070BD2F
:102B5000CA684968206802F0F9FD40212068EFE763
:102B6000226801461046EBE7704770B504460068DE
:102B700001694FF00005C943890715D4C168C943ED
:102B8000890711D4E91E016101202077206880693E
:102B90008007204602D0FFF7E7FF04E000F0D0F8FE
:102BA000204600F052F9257720680169C94349079A
:102BB00017D4C168C943490713D46FF004010161F8
:102BC000022020772068806910F4407F204602D0E0
:102BD000FFF7CAFF04E000F0B3F8204600F035F933
:102BE000257720680169C943090716D4C168C9431C
:102BF000090712D46FF008010161042020772068D2
:102C0000C0698007204602D0FFF7AEFF04E000F065
:102C100097F8204600F019F9257720680169C94323
:102C2000C90617D4C168C943C90613D46FF010018F
:102C30000161082020772068C06910F4407F204699
:102C400002D0FFF791FF04E000F07AF8204600F090
:102C5000FCF8257720680169C943C90708D1C16814
:102C6000C943C90704D1891E0161204600F034F927
:102C700020680169C943090609D4C168C943090626
:102C800005D46FF0800101612046FFF79FFE2068A8
:102C90000169C943490609D4C168C943490605D435
:102CA0006FF040010161204600F020F920680169C1
:102CB000C94389060BD4C168C943890607D46FF09C
:102CC000200101612046BDE87040FFF780BE70BD65
:102CD00010B586B000210091019102910391006826
:102CE0001349884221D11348816941F0040181616F
:102CF000816901F004010491816941F00801816159
:102D00008069022400F008000490C020CDE900048E
:102D1000694609480394FFF72BF90320CDE9000425
:102D2000694606480394FFF723F906B010BD00007A
:102D3000000400400010024000080140000C014067
:102D4000704770B5044690F83C000D4601280DD040
:102D5000012684F83C60022084F83D0042B1042A38
:102D600018D0082A2AD00C2A4DD139E0022070BD93
:102D7000206802F049FC2068816941F00801816106
:102D80002068816921F004018161206881692A69D4
:102D9000114311E0206802F05FFC2068816941F472
:102DA000006181612068816921F48061816120680E
:102DB00081692A6941EA0221816124E0206802F0E8
:102DC00077FC2068C16941F00801C1612068C169D0
:102DD00021F00401C1612068C1692A69114311E031
:102DE000206802F091FC2068C16941F40061C16172
:102DF0002068C16921F48061C1612068C1692A69C4
:102E000041EA0221C16184F83D60002084F83C0061
:102E100070BD10B5040003D094F83D0010B107E078
:102E2000012010BD002084F83C00204600F00CF882
:102E3000022084F83D00211D206802F08FFB012054
:102E400084F83D00002010BD7047704710B504465F
:102E50000068012202F0B8FB09492068884203D1CA
:102E6000416C41F4004141642068816801F0070130
:102E7000062903D0016841F001010160002010BD66
:102E8000002C014010B504460068002202F09CFBB3
:102E9000104B41F2111120688A10984209D1036A3F
:102EA0000B4206D1036A134203D1436C23F400435F
:102EB00043642068036A0B4206D1016A114203D1C0
:102EC000016821F001010160012084F83D0000202B
:102ED00010BD0000002C014000680349884201D168
:102EE000FFF746B97047000000080040704710B572
:102EF00004460068416994F83920C1F3C011212AC1
:102F00000BD151B1416921F080014161206B08B1C1
:102F1000FEF79CFE204602F0B6FC2068416994F85A
:102F20003A20C1F38011222A0BD151B1416921F01D
:102F300040014161606B08B1FEF788FE204602F057
:102F400094FC002010BD704770B5026804461068FC
:102F5000D168536910F00F0F51D003F0010501F44F
:102F6000907635435DD0C20705D0CA0503D5E26B24
:102F700042F00102E263420705D5DA0703D0E26BB3
:102F800042F00202E263820705D5DA0703D0E26B62
:102F900042F00402E263020705D5DA0703D0E26BD0
:102FA00042F00802E263E26B002A34D0800604D5C6
:102FB000880602D5204602F06FFC20684069E16B6C
:102FC000C0F3801001F008010143204624D002F034
:102FD0004CFC2068416949061AD5416921F040013D
:102FE0004161606BA0B11B494163606BFEF752FE0B
:102FF000002810D0606B416BBDE870400847830625
:103000000FD58B060DD52046BDE8704002F044BCBC
:103010002046FFF798FF70BDFFF795FF0020E063A3
:1030200070BD030606D50B0604D52046BDE87040EA
:1030300002F0DABC4006F3D54806F1D5D168204647
:1030400021F04001D160202184F8391000F00EFAFF
:1030500070BD00009357000870B5040004D094F8C8
:103060003900002510B106E0012070BD84F8385009
:10307000204600F023F8242084F839002068C16835
:1030800021F40051C160204602F052FC2068016921
:1030900021F4904101612068416921F02A014161D8
:1030A0002068C16841F40051C160E563202084F8C4
:1030B000390084F83A00002070BD0000F0B585B0FA
:1030C000002400940194029403940646404F036840
:1030D000404802210322404DBB4226D1836943F47C
:1030E00080438361836903F480430493836943F0DD
:1030F000040383618069039200F0040004900802D5
:10310000CDE9000169462846FEF732FF2815CDE9D2
:103110000004694628460294FEF72AFF0022052192
:103120002520FFF7ABF825204EE02C4FBB424DD1B8
:10313000C36943F40033C361C36903F400330493E8
:10314000836943F0040383618069039200F0040003
:1031500004900420CDE9000169462846FEF708FFE7
:103160000820CDE90004694628460294FEF700FFD6
:103170001C4D1B488027C5E90004C5E902472C61A6
:103180006C61AC612846EC61FEF77AFE08B1FEF78F
:1031900003F975636E621248134D143001C5102097
:1031A00091C5114845F810496C61AC61EC61FEF7BE
:1031B00067FE08B1FEF7F0F83563002205212620EE
:1031C0006E62FFF75BF82620FFF74AF805B0F0BD06
:1031D0000038014000100240000801400044004057
:1031E0006C0002402408002068080020F8B504465E
:1031F00090F83A0020283CD1C1B3BAB394F8380013
:10320000012836D0012084F83800A162A28500256B
:10321000E563222084F83A00636B17489862636B79
:103220001648D862636B16481863606B1346456393
:103230000846666B216802463046091DFEF74EFEC1
:10324000206801684168009184F83850C16841F4F1
:103250008071C1602068416941F0010141612068CD
:10326000416941F0400141610020F8BDFFE70120C4
:10327000FBE70220F9E70000ED5700082958000895
:10328000A357000890F83A30202B22D1F9B1F2B1BF
:1032900090F83830012B1CD081628285C2850021D4
:1032A000C163222280F83A2080F838100168CA6889
:1032B00042F48072CA6001684A6942F001024A61C0
:1032C0000068C16841F02001C16000207047012002
:1032D00070470220704700002DE9F041114C07466D
:1032E0001149E0690026401CA1F58075E061884223
:1032F00001D1E5610DE010F8011C0A2909D1421B3A
:1033000006700A490848521CFCF799FF0120E56144
:10331000E07287F838603846E169BDE8F041012283
:10332000FFF7B0BFA0000020C8030020C8020020A3
:1033300070472DE9F843044690F839001F461646B9
:103340000D46202850D1A5B19EB194F8380001282F
:103350004AD0012084F838004FF00008C4F83C80BF
:10336000212084F83900FEF7FDFEA6848146E6841C
:1033700026E00120BDE8F883E08C401EE084A068D0
:103380004B46B0F5805F4FF000024FF080012046C1
:10339000009703D002F059FBE8B90DE002F055FBAD
:1033A000C8B928882168C0F308004860206908B1BE
:1033B0006D1C05E0AD1C03E0216815F8010B4860A9
:1033C000E08C0028D8D14B460022402120460097AF
:1033D00002F03BFB08B10320CCE7202084F8390041
:1033E00084F838800020C5E70220C3E770B50446A2
:1033F00090F83900202830D169B362B394F83800CE
:1034000001282AD0012084F838002162A284E284B5
:103410000025E563212084F83900236B1048986269
:10342000236B1048D862236B0F481863206B134638
:1034300045632668206B321DFEF750FD21686FF052
:103440004000086084F838502068416941F08001EC
:103450004161002070BD012070BD022070BD0000E0
:103460003358000861580008A35700087047704798
:10347000FEE7000070B505460824134E18E000BFB3
:10348000FEF76BFE00F09EF8280601D5012200E051
:10349000002280213046FEF760FE6806050E00F02F
:1034A00091F8012240213046FEF757FE00F08AF8DD
:1034B000641EE4B24FF000024FF040013046DFD20C
:1034C000BDE87040FEF749BE000C014010B5154C38
:1034D000012280212046FEF740FE012240212046A5
:1034E000FEF73BFE00F06EF880212046FEF730FE2E
:1034F00000280CD0002280212046FEF72EFE00F08E
:1035000061F880212046FEF723FE08B1002010BD9F
:10351000002280212046FEF720FE00F053F8012013
:1035200010BD0000000C014010B50F4C00224021DE
:103530002046FEF712FE00F045F8002280212046CA
:10354000FEF70BFE00F03EF8012240212046FEF778
:1035500004FE00F037F8012280212046FEF7FDFD31
:10356000BDE8104000F02EB8000C014010B5144C1E
:10357000002240212046FEF7F0FD00F023F8012252
:1035800080212046FEF7E9FD00F01CF801224021D1
:103590002046FEF7E2FD00F015F880212046FEF7F8
:1035A000D7FD00284FF000024FF04001204603D025
:1035B000FEF7D3FD002010BDFEF7CFFD012010BDAA
:1035C000000C014008B507200090401E0090FCD17F
:1035D00008BD00002DE9FC41002703224FA15048FF
:1035E000FFF704FF4FF4FA70FEF7B0FCFDF7AEFCF6
:1035F00001264C4C002870D04BA002F0A1FA2068A4
:10360000022502281FDA4BA0256002F099FA022059
:10361000FDF74CFE10B14EA002F092FA41481E2177
:103620000830FDF755FD00286BD03E4A4FA11032FF
:1036300002F1160002F094FA3A4903224431A1F152
:103640001E00FDF7A1FC20680326032814DA354A82
:1036500049A08032A2F11E01266002F071FA03E057
:103660007F1CFFB2012F34D82E498031A1F11E00FA
:10367000FDF792FD0028F3D020680425042812DA13
:1036800047A0256002F05CFA0020FDF7E5FC254824
:103690001E210830FDF752FD002832D0214946A0F6
:1036A000083102F04DFA2068052605281EDA49483F
:1036B000474A2660C178CDE90012837842780178C4
:1036C00045A002F03DFA002708E07F1CFFB2012F61
:1036D00004D928462560BDE8FC8112E005233C4A58
:1036E0003C490020FDF778FD0028EED00620206040
:1036F00043A002F025FA002506E06D1CEDB20A2D6C
:1037000002D930462660E6E7FDF720FE0028F4D017
:1037100042A002F015FA0020DDE700002B2B2B0061
:103720007807002000000020415420746573742045
:103730004F4B0A003C313E205365742038323636F8
:10374000206E6574206D6F64652E2E2E0A000000B9
:10375000455350383236365F4E65745F4D6F646541
:103760005F43686F6F7365204F4B0A0045535038B5
:103770003236365F257300003C323E204A696F6E58
:1037800020576966692041503A25732C207573656E
:103790002070617373776F72643A25730A000000BA
:1037A0003C333E205365742073696E676C65206CF2
:1037B000696E6B0A000000004553503832363620DF
:1037C000495020416464726573733A25730A00009E
:1037D000D8000020C00000203C343E204C696E6BB5
:1037E00020746F2074637020736572766572202573
:1037F000642E25642E25642E25642E3A25730A0036
:103800003C353E20426567696E20756E7661726E4A
:1038100069736853656E642E2E2E0A00C5E4D6C304
:10382000204553503832363620CDEAB1CF0A000059
:103830002DE9F04101262F4D37022F4C4FF400485F
:1038400001281CD0A87898B110212046FEF780FCF2
:10385000B8B120212046FEF77BFC90B139462046C6
:10386000FEF776FC68B141462046FEF771FC40B198
:1038700010212046FEF76CFC012825D037E0AE7001
:10388000E2E76420FEF762FB0020A87010212046CA
:10389000FEF75EFC78B120212046FEF759FC68B1A6
:1038A00039462046FEF754FC50B141462046FEF70B
:1038B0004FFC38B11BE00120BDE8F0810220FBE79E
:1038C0000420F9E70820F7E720212046FEF740FC16
:1038D00001280CD139462046FEF73AFC012806D1D2
:1038E00041462046FEF734FC012800D1AE7000208E
:1038F000E2E70000A0000020000801402DE9FE439F
:10390000DFF87C90DDE90A65B9F90280871801EBE0
:10391000030C7F1EA8EB0104ACF1010C002C05DDAB
:103920001B1B002B2ADD04FB06554146B9F9068016
:103930004C46ACEB080CBCF1000F03DDA3EB0C0311
:10394000002B1BDDB4F904C0A7EB0C07002F00DD32
:10395000D21BB9F900400027844208DD241A24F064
:1039600007073844121B05EBE40504F00707002A9B
:1039700004DDCDE90065029700F048F8BDE8FE835C
:10398000EC08002038B50F4BB3F902408C4217DC2D
:10399000B3F906408C4213DBB3F90040844200DDEA
:1039A0002046B3F90440944200DA2246824207DB03
:1039B0001B7F00938BB292B289B280B200F067FC99
:1039C00038BD0000EC08002038B50F4BB3F90040BB
:1039D000844217DCB3F90440844213DBB3F902409C
:1039E0008C4200DD2146B3F90640944200DA2246BB
:1039F0008A4207DB1B7F009393B282B289B280B206
:103A000000F045FC38BD0000EC0800202DE9F84F1F
:103A10001E46DDE90A951746884683460024DDF8F0
:103A200030A009E004EB080153462A4658460097A7
:103A3000FDF7D8F94D44641CB442F3DBBDE8F88FC0
:103A400038B504460021684604F0FEFD00280ED17A
:103A5000BDF90000FCF7BEFE0022054BFCF726FE78
:103A6000044A054BFCF709FDFCF724FF206038BD34
:103A700000407540A4703D0AD74342402DE9F04F05
:103A80008DB00CA906A8CDE900010BAB07AA04A9CB
:103A900002A803F037FDBDF818006F4CC0057DD5B6
:103AA0000798FCF789FE6FF01D052946FCF7D9FC45
:103AB0000746E0600898FCF77FFE2946FCF7D1FC3A
:103AC000804620610998FCF777FE2946FCF7C9FC7F
:103AD000064660610A98FCF76FFE2946FCF7C1FCB8
:103AE0000546A06101213846FCF7BBFC3146FCF7D6
:103AF00048FC06464FF0404739464046FCF741FC3B
:103B00002946FCF73EFC3146FCF7E3FBFCF7BFFE21
:103B100003F024F8DFF844914FF0663842464B46F4
:103B2000FCF752FDFCF7C6FEE06160690121054625
:103B3000FCF797FC82462946FCF723FC05462069E2
:103B400039460746FCF71DFC3946FCF71AFC2946A6
:103B5000FCF711FC4FF07E51FCF7BBFBFCF797FE26
:103B600005460E460121E068FCF77BFC3946FCF770
:103B700008FC07465046A169FCF703FC3946FCF7F0
:103B8000A8FBFCF784FE2A46334603F02FFA424690
:103B90004B46FCF719FDFCF78DFE00E040E020628B
:103BA000A16901910846FCF7ECFB616907460846EC
:103BB0000091FCF7E6FB216906468B465846FCF768
:103BC000E0FBE16805468A465046FCF7DAFB2946E9
:103BD000FCF77FFB3146FCF7CEFB3946FCF7CBFB0D
:103BE000FCF755FE05460E4650460199FCF7C9FB09
:103BF000074658460099FCF7C4FB3946FCF769FBB9
:103C00000121FCF72EFCFCF742FE2A46334603F066
:103C1000EDF942464B46FCF7D7FCFCF74BFE6062E1
:103C2000BDF9180010F0700F08D0BDF80810E18041
:103C3000BDF80A102181BDF80C106181000708D57C
:103C4000BDF810002080BDF812006080BDF814009F
:103C5000A0800DB0BDE8F08F1801002066A64C4092
:103C600070B504F011FD08B1002070BD2FA001F067
:103C700067FF782005F0FEF908B135A04EE03FA0BF
:103C800001F05EFF782004F011FC08B143A045E08C
:103C90004EA001F055FF142005F0ACF908B154A076
:103CA0003CE05CA001F04CFF03F022FC08B163A0F3
:103CB00034E071A001F044FF7C48044604F07EFA31
:103CC0000546E01C04F07AFA45EAC005A01D04F0A0
:103CD00075FA45EA801080B203F0B8FD08B174A00F
:103CE0001CE07FA001F02CFF40F2731003F0D8FA23
:103CF00008B185A012E090A001F022FF142003F08B
:103D00000DFD08B195A009E09FA001F019FF05F095
:103D10006BFC012005F094F818B1A4A001F010FF8D
:103D2000A2E7ADA001F00CFF012070BD6D70752001
:103D3000696E697469616C697A6174696F6E206318
:103D40006F6D706C6574652E2E2E2E2E2E0A00005F
:103D50006D70755F7365745F73656E736F722063EA
:103D60006F6D65206163726F7373206572726F721D
:103D7000202E2E2E2E2E2E0A000000006D70755F54
:103D80007365745F73656E736F7220636F6D706CB3
:103D9000657465202E2E2E2E2E2E0A006D70755FF6
:103DA000636F6E6669677572655F6669666F2063CB
:103DB0006F6D65206163726F7373206572726F72CD
:103DC000202E2E2E2E2E2E0A000000006D70755F04
:103DD000636F6E6669677572655F6669666F20639B
:103DE0006F6D706C657465202E2E2E2E2E2E0A009F
:103DF0006D70755F7365745F73616D706C655F7214
:103E0000617465206572726F72202E2E2E2E2E2EFA
:103E10000A0000006D70755F7365745F73616D708B
:103E20006C655F7261746520636F6D706C6574653D
:103E3000202E2E2E2E2E2E0A00000000646D705FA4
:103E40006C6F61645F6D6F74696F6E5F64726976C9
:103E500065725F6669726D7761726520636F6D650B
:103E6000206163726F7373206572726F72202E2EE1
:103E70002E2E2E2E0A000000646D705F6C6F616440
:103E80005F6D6F74696F6E5F6472697665725F668D
:103E900069726D7761726520636F6D706C657465B2
:103EA000202E2E2E2E2E2E0A000000004001002073
:103EB000646D705F7365745F6F7269656E74617451
:103EC000696F6E20636F6D65206163726F7373201D
:103ED0006572726F72202E2E2E2E2E2E0A0000007A
:103EE000646D705F7365745F6F7269656E74617421
:103EF000696F6E20636F6D706C657465202E2E2E59
:103F00002E2E2E0A00000000646D705F656E6162E7
:103F10006C655F6665617475726520636F6D6520A1
:103F20006163726F7373206572726F72202E2E2E12
:103F30002E2E2E0A00000000646D705F656E6162B7
:103F40006C655F6665617475726520636F6D706C1A
:103F5000657465202E2E2E2E2E2E0A00646D705F45
:103F60007365745F6669666F5F7261746520636F05
:103F70006D65206163726F7373206572726F72205A
:103F80002E2E2E2E2E2E0A00646D705F7365745FC8
:103F90006669666F5F7261746520636F6D706C65D2
:103FA0007465202E2E2E2E2E2E0A00006D70755F49
:103FB0007365745F646D705F737461746520636FA3
:103FC0006D65206163726F7373206572726F72200A
:103FD0002E2E2E2E2E2E0A006D70755F7365745F67
:103FE000646D705F737461746520636F6D706C6570
:103FF0007465202E2E2E2E2E2E0A00003EB5002196
:104000000D48009101910B4A0291026001248160E8
:10401000047301754FF460220461C2614160FDF7D1
:10402000B9FC05200094CDE9014069460248FDF73E
:104030001BFC3EBD00240140C806002070B586B0C0
:1040400000241D480094019402940394816941F076
:1040500020018161816901F020010491816941F0B1
:1040600004018161816901F004010491816941F0D9
:10407000080181618069114E00F008004FF44C6521
:104080000490002229463046FEF767F848F23010C7
:10409000CDE900040120029069460948FDF768FF58
:1040A00011200095CDE901040220039069463046B5
:1040B000FDF75EFF06B070BD00100240000C01402D
:1040C0000008014010B58EB00024079408940994AC
:1040D0000A940B941C2168460C94FCF7C9F81F48FD
:1040E0001D49016040F2CF21C0E901146421C0E9FB
:1040F00003148461FEF78DFC4FF48050079007A9EC
:104100001648FEF7C6FC1548FEF783FE0B940BA974
:1041100012480C94FEF75CFC6020CDE900040220FC
:1041200002900022694604940C48FEF70AFE04221D
:1041300069460A48FEF705FE082269460748FEF769
:1041400000FE0C2269460548FEF7FBFD0348FEF71A
:10415000BFFD0EB010BD000000040040F8060020B6
:10416000FEE770472DE9F041154F054600244FF456
:1041700000684FF48066002231463846FDF7EDFFB7
:10418000280601D5012200E0002241463846FDF70D
:10419000E4FF6806050E012231463846FDF7DDFFD3
:1041A000641CE4B2082CE6D3002231463846FDF701
:1041B000D4FF31463846BDE8F0410122FDF7CDBFBE
:1041C000000C014070B501220B4D94022146284697
:1041D000FDF7C3FF0122D60231462846FDF7BDFF99
:1041E000002231462846FDF7B8FF21462846BDE8A3
:1041F00070400022FDF7B1BF000C014070B50D4DBD
:104200004FF48064002221462846FDF7A6FF660091
:10421000002231462846FDF7A0FF012231462846FC
:10422000FDF79BFF21462846BDE870400122FDF7BF
:1042300094BF0000000C01402DE9F8431F46DDF853
:1042400020900D46064680281FD2402D1DD2B01862
:10425000802802D3C6F1800082B2E819402802D338
:10426000C5F1400087B2002406EB02080BE02819D4
:1042700083B281B21FFA88F23046CDF8009000F088
:1042800006F8641CE4B2BC42F1D9BDE8F8832DE91C
:10429000FC4F1D4614460E460746802800D37F2754
:1042A000802C00D37F24402E00D33F26402D00D306
:1042B0003F25A74201D2E01B00E0381B0FFA80F92E
:1042C000AE4201D2A81B00E0701B0FFA80FA4FF03B
:1042D000FF30A74201D2012100E001460191AE4228
:1042E00000D2012083464846D14501DCCAF10000D6
:1042F00000EBD07040F34F08B9F1000F23D0BAF1B2
:10430000000F35D0C9F100000090314638460B9AB5
:1043100000F042F8A74201D1AE4227D000994046B2
:10432000884506DDA8EB0A010FFA81F801993944A6
:104330008FB25045E9DA08EB09000FFA80F806EB76
:104340000B0086B2E1E7B54202D22846354686B276
:10435000BC4200D2A7B234B206E0A1B238460B9AF2
:1043600000F01AF8641C24B2AC42F6DDBDE8FC8F04
:10437000B54200D2AEB2BC4202D220463C4687B221
:104380003DB206E0A8B231460B9A00F005F86D1C6C
:104390002DB2A542F6DDE9E770B5802813D2402999
:1043A00011D20B4B012401F007051E79AC40094BDB
:1043B000C90800EBC1100EB132B101E0012A03D0EF
:1043C000195CA143195470BD195C2143FAE7000040
:1043D000E40000200C09002028B1FF224FF4806186
:1043E0000248FBF73EBF0022F8E700000C0900205E
:1043F00070B50E4D002400BF04F1B000C0B2002122
:1044000000F016F80021084600F012F800211020F4
:1044100000F00EF805EBC4104022802100F01AF8DD
:10442000641CE4B2082CE7D370BD00000C09002026
:1044300070B50D460446FFF7C5FE7820FFF792FEE3
:104440002846FFF78FFE2046FFF78CFEBDE8704040
:10445000FFF7D4BE70B514460D460646FFF7B2FE10
:104460007820FFF77FFE2046FFF77CFE002404E063
:10447000305DFFF777FE641CA4B2AC42F8D3BDE810
:104480007040FFF7BBBE000010B50021AE20FFF763
:10449000CFFF00212020FFF7CBFF00211020FFF7E6
:1044A000C7FF0021B020FFF7C3FF0021C820FFF79E
:1044B000BFFF00210846FFF7BBFF00211020FFF7D8
:1044C000B7FF00214020FFF7B3FF00218120FFF755
:1044D000AFFF0021FF20FFF7ABFF0021A120FFF776
:1044E000A7FF0021A620FFF7A3FF0021A820FFF7C8
:1044F0009FFF00213F20FFF79BFF0021A420FFF733
:1045000097FF0021D320FFF793FF00210846FFF714
:104510008FFF0021D520FFF78BFF0021F020FFF750
:1045200087FF0021D920FFF783FF00212220FFF71A
:104530007FFF0021DA20FFF77BFF00211220FFF729
:1045400077FF0021DB20FFF773FF00212020FFF71A
:104550006FFF00218D20FFF76BFF00211420FFF774
:1045600067FF0021AF20FFF763FF0020FFF734FF54
:10457000FFF73EFF03480021018041800121417186
:1045800010BD0000E40000202DE9F04F89B0FCF7D9
:104590008EFF0022402183A0FDF72AF8844881691C
:1045A00000297DD0407A30B1824C834D012836D02D
:1045B000022833D15FE08148FDF796F8804882A158
:1045C000B0F900307F48B0F90020684601F0C8FA21
:1045D000142204216846FDF703F87F4880A1B0F952
:1045E00000307E48B0F90020684601F0B9FA242274
:1045F00004216846FCF7F4FF7D487FA1B0F9003044
:104600007C48B0F90020684601F0AAFA3222042161
:104610006846FCF7E5FF7C48FDF766F8BDE07B489F
:104620000068FCF734F902460B4679A1684601F0B0
:1046300097FA102204216846FCF7D2FF2068FCF7A5
:1046400026F902460B4676A1684601F089FA202237
:1046500004216846FCF7C4FF2868FCF718F90246F5
:104660000B4673A1684601F07BFA302204216846AC
:10467000FCF7B6FF91E02068FCF709F9DFF8C0A16C
:10468000DFF8C0B152465B46FBF79EFF00226E4B3F
:10469000FCF70CF802F090FD0422FCF776F800E03D
:1046A00076E0DFF8A88102460B4600204146FBF782
:1046B00085FFFCF7CDF807462868FCF7E8F8524676
:1046C0005B46FBF781FF00225F4BFBF7EFFF02F039
:1046D00073FD0422FCF759F8DFF8749102460B468B
:1046E00000204946FBF76AFFFCF7B2F8064620684F
:1046F000FCF7CDF852465B46FBF766FF0022524BB3
:10470000FBF7D4FF02F058FD0422FCF73EF8024606
:104710000B4600204146FBF7B0FEFCF799F8044633
:104720002868FCF7B4F852465B46FBF74DFF0022C1
:10473000454BFBF7BBFF02F03FFD0422FCF725F8D9
:1047400002460B4600204946FBF797FEFCF780F82F
:104750000546A74202DD20463C460746AE4202DD42
:104760002846354606462A4631463846FCF75FFF5E
:104770002A4631462046FCF75AFF22463946304643
:10478000FCF750FF224639462846FCF74BFF04E071
:10479000142240212FA0FCF72BFF09B0BDE8F04FF9
:1047A000FCF7B8BFD7CBCCACBDE2CBE30000000038
:1047B000A0000020380100203C01002070BC00084F
:1047C0001E0100201801002061783A25366420205F
:1047D0002067783A25366400200100201A01002065
:1047E00061793A25366420202067793A25366400BD
:1047F000220100201C010020617A3A253664202025
:1048000020677A3A253664005CB100083401002044
:10481000B5BCBABDBDC7A3BA252E316600000000E5
:10482000B8A9D1F6BDC7A3BA252E31660000000095
:10483000BAE1B9F6BDC7A3BA252E31660000000063
:104840001F85EB51B81E1940008076400000504093
:10485000000040404D5055363035302045525221F1
:104860000000000070B5FCF722FE0022402135A0B8
:10487000FCF7BEFE354C4FF47A756E106078032855
:104880002DD3FDF76FFCB0FBF5F105FB1100B04235
:1048900017D96078022804D1102200212CA0FCF73F
:1048A0009FFE6078032804D12022002128A0FCF775
:1048B00097FE6078042804D13022002124A0FCF760
:1048C0008FFE1022114623A0FCF78AFE2022102121
:1048D00023A0FCF785FE3022102123A02CE0FDF759
:1048E00041FCB0FBF5F105FB1100B04217D960782F
:1048F000012804D11022002115A0FCF771FE607878
:10490000022804D12022002111A0FCF769FE607862
:10491000032804D1302200210DA0FCF761FE1022F3
:10492000114614A0FCF75CFE2022102109A0FCF720
:1049300057FE302210210AA0FCF752FEBDE870405D
:10494000FCF7E8BED6F7B2CBB5A50000A00000206A
:104950002A000000D7CBCCACBDE2CBE300000000C6
:10496000BAF4CEFCB5C6000057494649CDA8D0C51B
:1049700000000000CFB5CDB3B2E2CAD40000000001
:1049800010B5FCF794FD002240210BA0FCF730FE8F
:10499000102211460AA0FCF723FE202210210BA0B2
:1049A000FCF71EFE302210210BA0FCF719FEBDE81B
:1049B0001040FCF7AFBE0000BAF4CEFCB5C6000054
:1049C0004B313AB5F7BDDAB5C6CAFD004B323AB540
:1049D000F7BDDAC6B5C2CA004B333AB5F7BDDAC186
:1049E000C1B6C800F0B589B0FCF761FD00224021D6
:1049F000C5A0FCF7FDFDC748FCF776FEC64C4FF49A
:104A0000FA65A07AE8B1C54EC54CC6A1B6F900302A
:104A1000B4F90020684601F0A3F814220421684686
:104A2000FCF7DEFDB4F9000044F6206400284FEAEC
:104A300040107DDD90FBF4F224231C212020203245
:104A4000D0E0228ABBA1684601F08AF810220A2130
:104A50006846FCF7C5FD208A4FF47A76B0FBF6F184
:104A600006FB110046214843B0FBF6F2112310214A
:104A700032203232FCF7DDFD208AB0F57A6F05D3A3
:104A80001323782212213220FCF7D3FD208A40F62E
:104A9000B831884205D31523782214213220FCF73F
:104AA000C8FD208AA84205D3172378221621322078
:104AB000FCF7BFFD208AB04205D3192378221821C4
:104AC0003220FCF7B6FD37220A219CA0FCF788FDB6
:104AD0009E48FCF709FE9E4C10212046FDF738FB4E
:104AE00000284FF01E024FF00A0165D099A000BFC8
:104AF000FCF776FD20212046FDF72AFB4FF01E0231
:104B0000002811465AD093A0FCF76AFD4FF480713B
:104B10002046FDF71DFB00284FF01E024FF032012A
:104B20004ED08CA0FCF75CFD4FF40041204600E025
:104B300052E0FDF70DFB4FF01E024FF04601C8B3E7
:104B400084A000BFFCF74CFD40212046FDF700FB90
:104B50004FF028024FF00A0168B37FA0FCF740FD38
:104B600080212046FDF7F4FA4FF028024FF01E0195
:104B700060B379A0FCF734FD784C01212046FDF7A5
:104B8000E7FA4FF028024FF0320108B372A000BFDD
:104B9000FCF726FD02212046FDF7DAFA4FF0280245
:104BA0004FF04601B0B16CA0FCF71AFD5948FCF774
:104BB0009BFDA0E006E007E069A099E768A0A3E7F5
:104BC00067A0AFE766A0BDE766A0C7E765A0D1E72D
:104BD00064A0DDE763A0E7E790FBF4F02423202244
:104BE0001C212030FCF725FDB6F9000000284FEA13
:104BF000401006DD90FBF5F224231C21602060327A
:104C000005E090FBF5F0242360221C216030FCF7C6
:104C100010FD554E554F56A1B6F90030B7F900209A
:104C2000684600F09DFF242204216846FCF7D8FC6A
:104C3000B7F9000000284FEA401006DD90FBF4F2BF
:104C400032232C212020203205E090FBF4F0322387
:104C500020222C212030FCF7ECFCB6F900000028C3
:104C60004FEA401006DD90FBF5F232232C21602044
:104C7000603205E090FBF5F0322360222C21603099
:104C8000FCF7D7FC3E4F3F4E3FA1B7F90030B6F9D5
:104C90000020684600F064FF322204216846FCF7D9
:104CA0009FFCB6F9000000284FEA401006DD90FB9B
:104CB000F4F240233A212020203205E090FBF4F06A
:104CC000402320223A212030FCF7B3FCB7F9000042
:104CD00000284FEA401006DD90FBF5F240233A2110
:104CE0006020603205E090FBF5F0402360223A211D
:104CF0006030FCF79EFCFCF70DFD09B02648BDE8CE
:104D0000F040FCF7F1BC0000CFB5CDB3B2E2CAD49D
:104D10000000000070BC0008A00000201E01002060
:104D20001801002061783A25366420202067783AFF
:104D30002536640041443A256400000070726573B2
:104D400073206B3320746F20692F730054B60008F2
:104D500000080140A8800000A1F00000000C014004
:104D6000A8780000A1F10000200100201A01002015
:104D700061793A25366420202067793A2536640027
:104D8000220100201C010020617A3A25366420208F
:104D900020677A3A253664005CB1000800B58BB014
:104DA000FCF785FB0022402122A0FCF721FC2448CF
:104DB000FCF79AFC1022002122A0FCF711FC2648E7
:104DC000C2788178CDE900124378027823A102A845
:104DD00000F0C6FE1822002102A8FCF701FC1E48C4
:104DE0001830C17882783039303ACDE900214378E3
:104DF00002781EA102A8303A303B00F0B1FE20221A
:104E0000002102A8FCF7ECFB282200211BA0FCF7E4
:104E1000E7FB302200211FA0FCF7E2FB3822002133
:104E200020A0FCF7DDFB2448FCF75EFCFCF772FCDD
:104E30000BB000BD57494649CDA8D0C500000000C1
:104E400070BC0008535349443A2045535038323619
:104E5000365F626436610000C000002069703A2548
:104E6000642E25642E25642E25640000706F7274F4
:104E70003A25642564256425640000004B31202018
:104E80003A434F4E4E4543542054435020534552CD
:104E9000564552004B3220203A53454E4420415251
:104EA000524159004B333A2020556E7661726E693B
:104EB000736873656E6400005CB100081CB5012660
:104EC000FDF750F9804C81460323627BA07B8DF86F
:104ED0000000111A91FBF3F14318DBB200EB410122
:104EE0008DF80130CFB2DFF8E4A18DF80270002513
:104EF0008DF803200195DAF800C0CCF83400DAF818
:104F000000008363DAF80000C763DAF80000026487
:104F100029465046FDF79AFF04215046FDF796FFBB
:104F200008215046FDF792FF0C215046FDF78EFFF9
:104F3000EB46E07AA0B3E572654966A000F000FE9A
:104F400065A16348FBF79FF9614FB84219D102F0A0
:104F50000DF948B1F8784D2806D138793038C1B20A
:104F6000E1715EA000F0ECFD02F000F948B1F878C4
:104F7000532806D138793038C1B2A17157A000F05A
:104F8000DFFD58A15248FBF77EF9B84208D15048DE
:104F9000FBF78BF94E4982B201F56C70FEF726FAE9
:104FA0006069002877D0A0796FF0180141434FF471
:104FB0007A7202EB8101618210B942F21070608254
:104FC000E0796421404200EB800001EB4000C0B278
:104FD0006073A17B401A618A91FBF0F004F0D0F875
:104FE000A37B677B00214FF001085A460DF10400B6
:104FF00010F801C0BCF1000F12F801C015D0ACF1DF
:10500000010C0CF0FF0C02F801C09C4500D1455486
:10501000491CC9B20429EBD3607988B1012816D0A4
:10502000022822D0032836D127E00CF1010C0CF025
:10503000FF0C02F801C0BC45EAD300F80180E7E7A5
:10504000DAF800109DF8002050464A6303E0DAF8D1
:10505000001050464D6302689DF80110C2F83810E8
:1050600002689DF80210D16310E0DAF80010504693
:105070004D63DAF800108D63F2E7DAF800104D6343
:10508000DAF800108D63DAF80010CD63DAF800006A
:105090009DF803100164304604F00EFBFDF762F842
:1050A000014609F5967081420AD32079012807D17B
:1050B000FDF758F881467006060E082E00D9012625
:1050C000012004F05DF834E7A0000020F80600207D
:1050D000C803002025730000354D000025640D0A2B
:1050E0000000000041540000254C207801280CD01D
:1050F00002280DD003280ED004283AD0FFF7B2FBC7
:1051000004F02CFB0020207235E0FFF76BFC32E04E
:10511000FFF73AFA2FE0FFF733FC207A401CC0B2C9
:105120002072012827D16061FEF7CCFF00211548CD
:10513000FDF7A8FE04211348FDF7A4FE082111483D
:10514000FDF7A0FE0C210F48FDF79CFE5020607378
:1051500000210C48FDF77AFE04210A48FDF776FE8F
:1051600008210848FDF772FE0C210648FDF76EFE87
:1051700001E0FFF713FE012004F002F8B5E700009C
:10518000A0000020F80600209EB082A00DF1640C63
:105190000FC88CE80F000127824CDFF80C92002525
:1051A0000DF114084FF4004A0020FEF741FBE070B7
:1051B000082803D12570257204F0D0FA2078012840
:1051C0001ED002282ED0032842D00428E07869D0CF
:1051D000012807D002280AD004280ED00A20FCF7A4
:1051E000B5FED2E060780128FBD9401E03E060786C
:1051F0000428F6D2401C6070C7E060782070C4E0DC
:10520000E07801280AD002280AD00428E9D12079C0
:1052100010B100202071B8E00120FBE7A772B4E0D4
:10522000A572B2E0E078012804D0022808D0042852
:1052300003D10BE0607A08B16572A6E06772A4E062
:10524000607A0028FAD0401E60729EE00220FBE7E0
:10525000E078082804D051464846FCF779FF08B9A1
:1052600004F07CFAE078012804D002280AD004284F
:1052700010D08AE06079401CC0B26071042800D16F
:10528000657182E0A079401CC0B2A0710A287CD16F
:10529000A5717AE0E079401CC0B2E0710A2874D1AF
:1052A000E57172E0012801D1FEF794F9E078022857
:1052B00053D110214E464846FCF74AFF01284CD1F5
:1052C00001023046FCF744FF012846D151463046E2
:1052D000FCF73EFF012840D13748344B344A35496A
:1052E000B0F900000DF1040CB3F90030B2F9002060
:1052F000B1F900108CE80F00304832A1B0F900007D
:1053000000902F48228AB0F9003005A800F028FC50
:10531000002605A8FAF7C9FFC1B20020424604E002
:10532000135C401C3344DEB2C0B28842F8D319A8E3
:1053300000EB16100A230078505408EB010043706C
:10534000857005A8FAF7B1FF82B205A92448FEF7D7
:105350004DF805A923A000F0F3FBE078042814D150
:1053600010214E464846FCF7F3FE01280DD12021BE
:105370003046FCF7EDFE012807D151463046FCF7D8
:10538000E7FE012801D1FBF78FFE012003F0F8FEB4
:105390000AE700003031323334353637383941428C
:1053A00043444546A000002000080140220100209F
:1053B000200100201E0100201C0100201A010020F5
:1053C00018010020354D59442534642536642536AE
:1053D000642536642536642536642536640000006D
:1053E0007807002025730A0008B5FEF739FC094C40
:1053F0000021A061009120B907A000F0A1FBA069E5
:1054000020B1FEF73BFB6846FEF71AFB012003F0D4
:10541000B7FEF4E7A00000204572726F7220696E3B
:105420006974204D50550A0000260F4C0F4D207B0B
:10543000A8B126730E490FA000F082FB0C48FAF7C2
:1054400034FF02460A490948FAF7F9FE0848FAF714
:105450002CFFB5F8021160F30E01A5F8021101202E
:1054600003F08EFEE3E70000A0000020C40100204E
:10547000C80500203C2D2D25730A000010B55020D2
:1054800080F31188BFF34F8FBFF36F8F04F076FB6B
:1054900018B104494FF080500860002080F3118853
:1054A00010BD000004ED00E030B593B0282168463F
:1054B000FAF7DEFE14210AA8FAF7DAFE002401202A
:1054C0000F9410941194010412948DE81300049029
:1054D0004FF4E010CDE90810022507956846FDF766
:1054E000E5F80F20CDE90A056802CDE90C4002215C
:1054F0000AA80E94FCF7CEFFA80311900F950FA8F1
:10550000FCF752FF13B030BD0D48016841F00101B6
:10551000016041680B4A1140416001680A4A11402C
:105520000160016821F480210160416821F4FE01DD
:1055300041604FF41F0181600449C0030860704757
:10554000001002400000FFF8FFFFF6FE08ED00E04B
:105550000148FDF70ABB0000AC080020F0B5026866
:10556000164B174C174D4FF08047984205D0B84264
:1055700003D0A04201D0A84203D122F070064A68AD
:105580003243984205D0B84203D0A04201D0A8428D
:1055900003D122F44074CA6822434C6922F080028D
:1055A000224302608A68C2620A688262984201D11C
:1055B0000969016301214161F0BD0000002C014037
:1055C000000400400008004010B501F01F03012155
:1055D000046A99408C430462016A9A401143016253
:1055E00010BD10B5846842EA032224F47F440A43C4
:1055F0002243826010BD826822F070020A4342F0AA
:10560000070181607047000030B5026A22F0010294
:105610000262026A4368846924F073050C682C43B3
:1056200022F002058A682A430A4DA8420BD122F0D3
:105630000805CA6823F440732A434D6922F0040226
:105640001D438B692B434360846149684163026257
:1056500030BD0000002C014030B5026A22F010027B
:105660000262026A436884690D6824F4E64444EAED
:1056700005248D6822F0200242EA05120B4DA84253
:105680000ED1CD6822F0800242EA05124D6923F462
:10569000406343EA85038D6922F0400243EA8503B3
:1056A0004360846149688163026230BD002C01401F
:1056B00030B5026A22F480720262036A4268C469E9
:1056C00023F4007324F073050C682C438D6843EABF
:1056D00005230C4DA8420ED1CD6823F4006343EAA4
:1056E00005234D6922F4405242EA05128D6923F4E4
:1056F000806342EA05124260C4614968C163036283
:1057000030BD0000002C014030B5026A22F4805206
:105710000262046A4268C3690D6823F4E64343EAFF
:1057200005238D6824F4005444EA0534064DA8424C
:1057300004D14D6922F4804242EA85124260C3617D
:1057400049680164046230BD002C014010B5036A51
:10575000046A24F001040462846924F0F00444EA39
:10576000021423F00A020A438461026210BD10B5DC
:10577000036A23F0100303628369046A23F470430D
:1057800043EA023224F0A00343EA0111826101627C
:1057900010BD10B5406A0021C185C184FDF7D3FB5F
:1057A00010BD70B5446A2068406994F83910C0F3A0
:1057B000C0100025212904D118B1E584204600F04D
:1057C00062F82068406994F83A10C0F380102229EA
:1057D00004D118B1E585204600F047F8E06B40F0B1
:1057E0001000E0632046FDF7AEFB70BD10B501462A
:1057F000406A09680968890613D40021C1850168D7
:10580000CA6822F48072CA6001684A6922F0010203
:105810004A6101684A6922F040024A61202180F809
:105820003A10FDF759FD10BD10B5406AFDF780FD37
:1058300010BD10B50146406A0968096889060CD494
:105840000021C18401684A6922F080024A6100682F
:10585000C16841F04001C16010BDFDF707FE10BDF9
:1058600010B5406AFDF703FE10BD0168CA6822F456
:105870009072CA6001684A6922F001024A612021DF
:1058800080F83A1070470168CA6822F0C002CA6006
:10589000202180F83910704710B590F83A1022296D
:1058A00001D0022010BD8168B1F5805F11D001697F
:1058B000002901681FD0496801F07F03816A4A1CF2
:1058C00082620B70C18D491E0904090CC18518D074
:1058D0002BE00269816A002A0268526805D0D2B2C0
:1058E0000A80816A491C8162ECE7C2F308020A80DF
:1058F000816A891CF7E74A68816A4B1C83620A70D7
:10590000E0E70168CA6822F02002CA600168CA683C
:1059100022F48072CA6001684A6922F001024A6179
:10592000202180F83A10FDF7D7FC002010BD0000C0
:105930002DE9F041044600680169E26821F4405114
:10594000114301612169A068084361690843216826
:10595000CA6841F20C639A430243CA6020684169F5
:10596000A26921F44071114341611E4920686425F8
:105970003226884202D1FCF753FE01E0FCF740FEDC
:1059800000EBC00101EB001160686FF018078000A8
:10599000B1FBF0F2B2FBF5F2B1FBF0F37A4303EBAB
:1059A0008202B1FBF0F306EB0212B2FBF5F2B3FB9D
:1059B000F5F302F0F00202EB0312B1FBF0F3B1FBDE
:1059C000F0F0B0FBF5F0784303EB800006EB00103D
:1059D000B0FBF5F0216800F00F0010448860BDE8CE
:1059E000F08100000038014090F83910212901D0E1
:1059F000022070478168B1F5805F016A0BD04A1CB4
:105A00000262026809785160C18C491E0904090CC0
:105A1000C1840ED017E009880268C1F30801516003
:105A200001690029016A02D0491C0162ECE7891C66
:105A3000FBE70168CA6822F08002CA600068C1689A
:105A400041F04001C160002070472DE9F0419846C7
:105A500017460E460446069D1DE0681C1BD02DB15E
:105A6000FCF780FBA0EB0800A84214D92068C168AD
:105A700021F4D071C1602068416921F001014161C8
:105A8000202084F8390084F83A00002084F8380097
:105A90000320BDE8F0812068006836EA000004D0E9
:105AA0000020B842D9D00020F3E70120F9E7000038
:105AB0000148FDF749BA000038070020F8B514483E
:105AC000FDF742FA124C20680168C943C9061ED48A
:105AD00001680026406800902046FDF708FA0D484E
